{
  "_format": "hh-sol-artifact-1",
  "contractName": "LootFamiliars",
  "sourceName": "contracts/LootFamiliars.sol",
  "abi": [
    {
      "inputs": [
        {
          "internalType": "address",
          "name": "v1Address",
          "type": "address"
        }
      ],
      "stateMutability": "nonpayable",
      "type": "constructor"
    },
    {
      "anonymous": false,
      "inputs": [
        {
          "indexed": true,
          "internalType": "address",
          "name": "owner",
          "type": "address"
        },
        {
          "indexed": true,
          "internalType": "address",
          "name": "approved",
          "type": "address"
        },
        {
          "indexed": true,
          "internalType": "uint256",
          "name": "tokenId",
          "type": "uint256"
        }
      ],
      "name": "Approval",
      "type": "event"
    },
    {
      "anonymous": false,
      "inputs": [
        {
          "indexed": true,
          "internalType": "address",
          "name": "owner",
          "type": "address"
        },
        {
          "indexed": true,
          "internalType": "address",
          "name": "operator",
          "type": "address"
        },
        {
          "indexed": false,
          "internalType": "bool",
          "name": "approved",
          "type": "bool"
        }
      ],
      "name": "ApprovalForAll",
      "type": "event"
    },
    {
      "anonymous": false,
      "inputs": [
        {
          "indexed": true,
          "internalType": "address",
          "name": "previousOwner",
          "type": "address"
        },
        {
          "indexed": true,
          "internalType": "address",
          "name": "newOwner",
          "type": "address"
        }
      ],
      "name": "OwnershipTransferred",
      "type": "event"
    },
    {
      "anonymous": false,
      "inputs": [
        {
          "indexed": true,
          "internalType": "address",
          "name": "from",
          "type": "address"
        },
        {
          "indexed": true,
          "internalType": "address",
          "name": "to",
          "type": "address"
        },
        {
          "indexed": true,
          "internalType": "uint256",
          "name": "tokenId",
          "type": "uint256"
        }
      ],
      "name": "Transfer",
      "type": "event"
    },
    {
      "inputs": [],
      "name": "V1_FAMILIAR_ADDRESS",
      "outputs": [
        {
          "internalType": "address",
          "name": "",
          "type": "address"
        }
      ],
      "stateMutability": "view",
      "type": "function"
    },
    {
      "inputs": [
        {
          "internalType": "uint256[]",
          "name": "familiarIds",
          "type": "uint256[]"
        }
      ],
      "name": "airdropWithV1Familiars",
      "outputs": [],
      "stateMutability": "nonpayable",
      "type": "function"
    },
    {
      "inputs": [
        {
          "internalType": "address",
          "name": "to",
          "type": "address"
        },
        {
          "internalType": "uint256",
          "name": "tokenId",
          "type": "uint256"
        }
      ],
      "name": "approve",
      "outputs": [],
      "stateMutability": "nonpayable",
      "type": "function"
    },
    {
      "inputs": [
        {
          "internalType": "address",
          "name": "owner",
          "type": "address"
        }
      ],
      "name": "balanceOf",
      "outputs": [
        {
          "internalType": "uint256",
          "name": "",
          "type": "uint256"
        }
      ],
      "stateMutability": "view",
      "type": "function"
    },
    {
      "inputs": [],
      "name": "baseURI",
      "outputs": [
        {
          "internalType": "string",
          "name": "",
          "type": "string"
        }
      ],
      "stateMutability": "view",
      "type": "function"
    },
    {
      "inputs": [
        {
          "internalType": "uint256",
          "name": "_startingID",
          "type": "uint256"
        },
        {
          "internalType": "uint256",
          "name": "_endID",
          "type": "uint256"
        }
      ],
      "name": "findClaimable",
      "outputs": [
        {
          "internalType": "uint256[]",
          "name": "",
          "type": "uint256[]"
        }
      ],
      "stateMutability": "view",
      "type": "function"
    },
    {
      "inputs": [],
      "name": "flipSaleState",
      "outputs": [],
      "stateMutability": "nonpayable",
      "type": "function"
    },
    {
      "inputs": [
        {
          "internalType": "uint256",
          "name": "tokenId",
          "type": "uint256"
        }
      ],
      "name": "getApproved",
      "outputs": [
        {
          "internalType": "address",
          "name": "",
          "type": "address"
        }
      ],
      "stateMutability": "view",
      "type": "function"
    },
    {
      "inputs": [
        {
          "internalType": "address",
          "name": "owner",
          "type": "address"
        },
        {
          "internalType": "address",
          "name": "operator",
          "type": "address"
        }
      ],
      "name": "isApprovedForAll",
      "outputs": [
        {
          "internalType": "bool",
          "name": "",
          "type": "bool"
        }
      ],
      "stateMutability": "view",
      "type": "function"
    },
    {
      "inputs": [
        {
          "internalType": "uint256",
          "name": "familiarId",
          "type": "uint256"
        }
      ],
      "name": "isClaimable",
      "outputs": [
        {
          "internalType": "bool",
          "name": "claimable",
          "type": "bool"
        }
      ],
      "stateMutability": "view",
      "type": "function"
    },
    {
      "inputs": [
        {
          "internalType": "uint256",
          "name": "tokenId",
          "type": "uint256"
        }
      ],
      "name": "lootExpansionTokenUri",
      "outputs": [
        {
          "internalType": "string",
          "name": "",
          "type": "string"
        }
      ],
      "stateMutability": "view",
      "type": "function"
    },
    {
      "inputs": [
        {
          "internalType": "uint256",
          "name": "familiarId",
          "type": "uint256"
        }
      ],
      "name": "mint",
      "outputs": [],
      "stateMutability": "payable",
      "type": "function"
    },
    {
      "inputs": [
        {
          "internalType": "uint256[]",
          "name": "familiarIds",
          "type": "uint256[]"
        }
      ],
      "name": "multiMint",
      "outputs": [],
      "stateMutability": "payable",
      "type": "function"
    },
    {
      "inputs": [],
      "name": "name",
      "outputs": [
        {
          "internalType": "string",
          "name": "",
          "type": "string"
        }
      ],
      "stateMutability": "view",
      "type": "function"
    },
    {
      "inputs": [],
      "name": "owner",
      "outputs": [
        {
          "internalType": "address",
          "name": "",
          "type": "address"
        }
      ],
      "stateMutability": "view",
      "type": "function"
    },
    {
      "inputs": [
        {
          "internalType": "uint256",
          "name": "tokenId",
          "type": "uint256"
        }
      ],
      "name": "ownerOf",
      "outputs": [
        {
          "internalType": "address",
          "name": "",
          "type": "address"
        }
      ],
      "stateMutability": "view",
      "type": "function"
    },
    {
      "inputs": [],
      "name": "publicPrice",
      "outputs": [
        {
          "internalType": "uint256",
          "name": "",
          "type": "uint256"
        }
      ],
      "stateMutability": "view",
      "type": "function"
    },
    {
      "inputs": [],
      "name": "renounceOwnership",
      "outputs": [],
      "stateMutability": "nonpayable",
      "type": "function"
    },
    {
      "inputs": [
        {
          "internalType": "address",
          "name": "from",
          "type": "address"
        },
        {
          "internalType": "address",
          "name": "to",
          "type": "address"
        },
        {
          "internalType": "uint256",
          "name": "tokenId",
          "type": "uint256"
        }
      ],
      "name": "safeTransferFrom",
      "outputs": [],
      "stateMutability": "nonpayable",
      "type": "function"
    },
    {
      "inputs": [
        {
          "internalType": "address",
          "name": "from",
          "type": "address"
        },
        {
          "internalType": "address",
          "name": "to",
          "type": "address"
        },
        {
          "internalType": "uint256",
          "name": "tokenId",
          "type": "uint256"
        },
        {
          "internalType": "bytes",
          "name": "_data",
          "type": "bytes"
        }
      ],
      "name": "safeTransferFrom",
      "outputs": [],
      "stateMutability": "nonpayable",
      "type": "function"
    },
    {
      "inputs": [],
      "name": "saleIsActive",
      "outputs": [
        {
          "internalType": "bool",
          "name": "",
          "type": "bool"
        }
      ],
      "stateMutability": "view",
      "type": "function"
    },
    {
      "inputs": [
        {
          "internalType": "address",
          "name": "operator",
          "type": "address"
        },
        {
          "internalType": "bool",
          "name": "approved",
          "type": "bool"
        }
      ],
      "name": "setApprovalForAll",
      "outputs": [],
      "stateMutability": "nonpayable",
      "type": "function"
    },
    {
      "inputs": [
        {
          "internalType": "string",
          "name": "baseURI",
          "type": "string"
        }
      ],
      "name": "setBaseURI",
      "outputs": [],
      "stateMutability": "nonpayable",
      "type": "function"
    },
    {
      "inputs": [
        {
          "internalType": "uint256",
          "name": "newPrice",
          "type": "uint256"
        }
      ],
      "name": "setPublicPrice",
      "outputs": [],
      "stateMutability": "nonpayable",
      "type": "function"
    },
    {
      "inputs": [
        {
          "internalType": "bytes4",
          "name": "interfaceId",
          "type": "bytes4"
        }
      ],
      "name": "supportsInterface",
      "outputs": [
        {
          "internalType": "bool",
          "name": "",
          "type": "bool"
        }
      ],
      "stateMutability": "view",
      "type": "function"
    },
    {
      "inputs": [],
      "name": "symbol",
      "outputs": [
        {
          "internalType": "string",
          "name": "",
          "type": "string"
        }
      ],
      "stateMutability": "view",
      "type": "function"
    },
    {
      "inputs": [
        {
          "internalType": "uint256",
          "name": "index",
          "type": "uint256"
        }
      ],
      "name": "tokenByIndex",
      "outputs": [
        {
          "internalType": "uint256",
          "name": "",
          "type": "uint256"
        }
      ],
      "stateMutability": "view",
      "type": "function"
    },
    {
      "inputs": [
        {
          "internalType": "address",
          "name": "owner",
          "type": "address"
        },
        {
          "internalType": "uint256",
          "name": "index",
          "type": "uint256"
        }
      ],
      "name": "tokenOfOwnerByIndex",
      "outputs": [
        {
          "internalType": "uint256",
          "name": "",
          "type": "uint256"
        }
      ],
      "stateMutability": "view",
      "type": "function"
    },
    {
      "inputs": [
        {
          "internalType": "uint256",
          "name": "tokenId",
          "type": "uint256"
        }
      ],
      "name": "tokenURI",
      "outputs": [
        {
          "internalType": "string",
          "name": "",
          "type": "string"
        }
      ],
      "stateMutability": "view",
      "type": "function"
    },
    {
      "inputs": [],
      "name": "totalSupply",
      "outputs": [
        {
          "internalType": "uint256",
          "name": "",
          "type": "uint256"
        }
      ],
      "stateMutability": "view",
      "type": "function"
    },
    {
      "inputs": [
        {
          "internalType": "address",
          "name": "from",
          "type": "address"
        },
        {
          "internalType": "address",
          "name": "to",
          "type": "address"
        },
        {
          "internalType": "uint256",
          "name": "tokenId",
          "type": "uint256"
        }
      ],
      "name": "transferFrom",
      "outputs": [],
      "stateMutability": "nonpayable",
      "type": "function"
    },
    {
      "inputs": [
        {
          "internalType": "address",
          "name": "newOwner",
          "type": "address"
        }
      ],
      "name": "transferOwnership",
      "outputs": [],
      "stateMutability": "nonpayable",
      "type": "function"
    },
    {
      "inputs": [],
      "name": "withdraw",
      "outputs": [],
      "stateMutability": "nonpayable",
      "type": "function"
    }
  ],
  "bytecode": "0x60c06040526702c68af0bb140000600c55600d805460ff191660011790553480156200002a57600080fd5b5060405162003a7f38038062003a7f833981810160405260208110156200005057600080fd5b5051604080518082018252601b81527f46616d696c696172732028666f7220416476656e7475726572732900000000006020828101919091528251808401909352600d83526c4c6f6f7446616d696c6961727360981b9083015290620000bd6301ffc9a760e01b6200019b565b8151620000d290600690602085019062000224565b508051620000e890600790602084019062000224565b50620000fb6380ac58cd60e01b6200019b565b6200010d635b5e139f60e01b6200019b565b6200011f63780e9d6360e01b6200019b565b50506001600a5560006200013262000220565b600b80546001600160a01b0319166001600160a01b038316908117909155604051919250906000907f8be0079c531659141344cd1fd0a4f28419497f9722a3daafe3b4186f6b6457e0908290a35060601b6001600160601b031916608081905260a052620002d0565b6001600160e01b03198082161415620001fb576040805162461bcd60e51b815260206004820152601c60248201527f4552433136353a20696e76616c696420696e7465726661636520696400000000604482015290519081900360640190fd5b6001600160e01b0319166000908152602081905260409020805460ff19166001179055565b3390565b828054600181600116156101000203166002900490600052602060002090601f0160209004810192826200025c5760008555620002a7565b82601f106200027757805160ff1916838001178555620002a7565b82800160010185558215620002a7579182015b82811115620002a75782518255916020019190600101906200028a565b50620002b5929150620002b9565b5090565b5b80821115620002b55760008155600101620002ba565b60805160601c60a05160601c61377b62000304600039806114f952806115f7528061276f525080611357525061377b6000f3fe6080604052600436106101fe5760003560e01c8063715018a61161011d578063a22cb465116100b0578063c62752551161007f578063e985e9c511610064578063e985e9c514610a44578063eb8d244414610a8c578063f2fde38b14610aa1576101fe565b8063c6275255146109f0578063c87b56dd14610a1a576101fe565b8063a22cb46514610833578063a945bf801461087b578063afe9ef0b14610890578063b88d4fde14610910576101fe565b80638da5cb5b116100ec5780638da5cb5b1461074957806395d89b411461075e5780639a0e4ebb14610773578063a0712d6814610816576101fe565b8063715018a61461064557806373b8d29e1461065a5780637d086ec61461066f57806389610a091461071f576101fe565b80633ccfd60b1161019557806355f804b31161016457806355f804b3146105135780636352211e146105c65780636c0360eb146105f057806370a0823114610605576101fe565b80633ccfd60b1461045a5780633f5c50c41461046f57806342842e0e146104995780634f6ccce7146104e9576101fe565b806318160ddd116101d157806318160ddd1461038857806323b872dd146103af5780632f745c59146103ff57806334918dfd14610445576101fe565b806301ffc9a71461020357806306fdde0314610263578063081812fc146102ed578063095ea7b314610340575b600080fd5b34801561020f57600080fd5b5061024f6004803603602081101561022657600080fd5b50357fffffffff0000000000000000000000000000000000000000000000000000000016610ae1565b604080519115158252519081900360200190f35b34801561026f57600080fd5b50610278610b1c565b6040805160208082528351818301528351919283929083019185019080838360005b838110156102b257818101518382015260200161029a565b50505050905090810190601f1680156102df5780820380516001836020036101000a031916815260200191505b509250505060405180910390f35b3480156102f957600080fd5b506103176004803603602081101561031057600080fd5b5035610bd0565b6040805173ffffffffffffffffffffffffffffffffffffffff9092168252519081900360200190f35b34801561034c57600080fd5b506103866004803603604081101561036357600080fd5b5073ffffffffffffffffffffffffffffffffffffffff8135169060200135610c59565b005b34801561039457600080fd5b5061039d610d9c565b60408051918252519081900360200190f35b3480156103bb57600080fd5b50610386600480360360608110156103d257600080fd5b5073ffffffffffffffffffffffffffffffffffffffff813581169160208101359091169060400135610dad565b34801561040b57600080fd5b5061039d6004803603604081101561042257600080fd5b5073ffffffffffffffffffffffffffffffffffffffff8135169060200135610e1e565b34801561045157600080fd5b50610386610e56565b34801561046657600080fd5b50610386610f30565b34801561047b57600080fd5b506102786004803603602081101561049257600080fd5b503561100b565b3480156104a557600080fd5b50610386600480360360608110156104bc57600080fd5b5073ffffffffffffffffffffffffffffffffffffffff813581169160208101359091169060400135611016565b3480156104f557600080fd5b5061039d6004803603602081101561050c57600080fd5b5035611031565b34801561051f57600080fd5b506103866004803603602081101561053657600080fd5b81019060208101813564010000000081111561055157600080fd5b82018360208201111561056357600080fd5b8035906020019184600183028401116401000000008311171561058557600080fd5b91908080601f016020809104026020016040519081016040528093929190818152602001838380828437600092019190915250929550611047945050505050565b3480156105d257600080fd5b50610317600480360360208110156105e957600080fd5b50356110fb565b3480156105fc57600080fd5b50610278611123565b34801561061157600080fd5b5061039d6004803603602081101561062857600080fd5b503573ffffffffffffffffffffffffffffffffffffffff166111a2565b34801561065157600080fd5b5061038661123e565b34801561066657600080fd5b50610317611355565b34801561067b57600080fd5b506103866004803603602081101561069257600080fd5b8101906020810181356401000000008111156106ad57600080fd5b8201836020820111156106bf57600080fd5b803590602001918460208302840111640100000000831117156106e157600080fd5b919080806020026020016040519081016040528093929190818152602001838360200280828437600092019190915250929550611379945050505050565b34801561072b57600080fd5b5061024f6004803603602081101561074257600080fd5b50356115dd565b34801561075557600080fd5b506103176116a1565b34801561076a57600080fd5b506102786116bd565b6103866004803603602081101561078957600080fd5b8101906020810181356401000000008111156107a457600080fd5b8201836020820111156107b657600080fd5b803590602001918460208302840111640100000000831117156107d857600080fd5b91908080602002602001604051908101604052809392919081815260200183836020028082843760009201919091525092955061173c945050505050565b6103866004803603602081101561082c57600080fd5b5035611842565b34801561083f57600080fd5b506103866004803603604081101561085657600080fd5b5073ffffffffffffffffffffffffffffffffffffffff81351690602001351515611925565b34801561088757600080fd5b5061039d611a96565b34801561089c57600080fd5b506108c0600480360360408110156108b357600080fd5b5080359060200135611a9c565b60408051602080825283518183015283519192839290830191858101910280838360005b838110156108fc5781810151838201526020016108e4565b505050509050019250505060405180910390f35b34801561091c57600080fd5b506103866004803603608081101561093357600080fd5b73ffffffffffffffffffffffffffffffffffffffff82358116926020810135909116916040820135919081019060808101606082013564010000000081111561097b57600080fd5b82018360208201111561098d57600080fd5b803590602001918460018302840111640100000000831117156109af57600080fd5b91908080601f016020809104026020016040519081016040528093929190818152602001838380828437600092019190915250929550611b9e945050505050565b3480156109fc57600080fd5b5061038660048036036020811015610a1357600080fd5b5035611c16565b348015610a2657600080fd5b5061027860048036036020811015610a3d57600080fd5b5035611cc3565b348015610a5057600080fd5b5061024f60048036036040811015610a6757600080fd5b5073ffffffffffffffffffffffffffffffffffffffff81358116916020013516612030565b348015610a9857600080fd5b5061024f61206b565b348015610aad57600080fd5b5061038660048036036020811015610ac457600080fd5b503573ffffffffffffffffffffffffffffffffffffffff16612074565b7fffffffff00000000000000000000000000000000000000000000000000000000811660009081526020819052604090205460ff165b919050565b60068054604080516020601f60027fffffffffffffffffffffffffffffffffffffffffffffffffffffffffffffffff610100600188161502019095169490940493840181900481028201810190925282815260609390929091830182828015610bc65780601f10610b9b57610100808354040283529160200191610bc6565b820191906000526020600020905b815481529060010190602001808311610ba957829003601f168201915b5050505050905090565b6000610bdb82612216565b610c30576040517f08c379a000000000000000000000000000000000000000000000000000000000815260040180806020018281038252602c815260200180613646602c913960400191505060405180910390fd5b5060009081526004602052604090205473ffffffffffffffffffffffffffffffffffffffff1690565b6000610c64826110fb565b90508073ffffffffffffffffffffffffffffffffffffffff168373ffffffffffffffffffffffffffffffffffffffff161415610ceb576040517f08c379a00000000000000000000000000000000000000000000000000000000081526004018080602001828103825260218152602001806136f46021913960400191505060405180910390fd5b8073ffffffffffffffffffffffffffffffffffffffff16610d0a612223565b73ffffffffffffffffffffffffffffffffffffffff161480610d385750610d3881610d33612223565b612030565b610d8d576040517f08c379a00000000000000000000000000000000000000000000000000000000081526004018080602001828103825260388152602001806135996038913960400191505060405180910390fd5b610d978383612227565b505050565b6000610da860026122c7565b905090565b610dbe610db8612223565b826122d2565b610e13576040517f08c379a00000000000000000000000000000000000000000000000000000000081526004018080602001828103825260318152602001806137156031913960400191505060405180910390fd5b610d978383836123c4565b73ffffffffffffffffffffffffffffffffffffffff82166000908152600160205260408120610e4d908361259f565b90505b92915050565b610e5e612223565b73ffffffffffffffffffffffffffffffffffffffff16610e7c6116a1565b73ffffffffffffffffffffffffffffffffffffffff1614610efe57604080517f08c379a000000000000000000000000000000000000000000000000000000000815260206004820181905260248201527f4f776e61626c653a2063616c6c6572206973206e6f7420746865206f776e6572604482015290519081900360640190fd5b600d80547fffffffffffffffffffffffffffffffffffffffffffffffffffffffffffffff00811660ff90911615179055565b610f38612223565b73ffffffffffffffffffffffffffffffffffffffff16610f566116a1565b73ffffffffffffffffffffffffffffffffffffffff1614610fd857604080517f08c379a000000000000000000000000000000000000000000000000000000000815260206004820181905260248201527f4f776e61626c653a2063616c6c6572206973206e6f7420746865206f776e6572604482015290519081900360640190fd5b6040514790339082156108fc029083906000818181858888f19350505050158015611007573d6000803e3d6000fd5b5050565b6060610e5082611cc3565b610d9783838360405180602001604052806000815250611b9e565b60008061103f6002846125ab565b509392505050565b61104f612223565b73ffffffffffffffffffffffffffffffffffffffff1661106d6116a1565b73ffffffffffffffffffffffffffffffffffffffff16146110ef57604080517f08c379a000000000000000000000000000000000000000000000000000000000815260206004820181905260248201527f4f776e61626c653a2063616c6c6572206973206e6f7420746865206f776e6572604482015290519081900360640190fd5b6110f8816125c7565b50565b6000610e50826040518060600160405280602981526020016135fb60299139600291906125da565b60098054604080516020601f60027fffffffffffffffffffffffffffffffffffffffffffffffffffffffffffffffff610100600188161502019095169490940493840181900481028201810190925282815260609390929091830182828015610bc65780601f10610b9b57610100808354040283529160200191610bc6565b600073ffffffffffffffffffffffffffffffffffffffff8216611210576040517f08c379a000000000000000000000000000000000000000000000000000000000815260040180806020018281038252602a8152602001806135d1602a913960400191505060405180910390fd5b73ffffffffffffffffffffffffffffffffffffffff82166000908152600160205260409020610e50906122c7565b611246612223565b73ffffffffffffffffffffffffffffffffffffffff166112646116a1565b73ffffffffffffffffffffffffffffffffffffffff16146112e657604080517f08c379a000000000000000000000000000000000000000000000000000000000815260206004820181905260248201527f4f776e61626c653a2063616c6c6572206973206e6f7420746865206f776e6572604482015290519081900360640190fd5b600b5460405160009173ffffffffffffffffffffffffffffffffffffffff16907f8be0079c531659141344cd1fd0a4f28419497f9722a3daafe3b4186f6b6457e0908390a3600b80547fffffffffffffffffffffffff0000000000000000000000000000000000000000169055565b7f000000000000000000000000000000000000000000000000000000000000000081565b6002600a5414156113eb57604080517f08c379a000000000000000000000000000000000000000000000000000000000815260206004820152601f60248201527f5265656e7472616e637947756172643a207265656e7472616e742063616c6c00604482015290519081900360640190fd5b6002600a55600d5460ff1661146157604080517f08c379a000000000000000000000000000000000000000000000000000000000815260206004820152601b60248201527f53616c65206d7573742062652061637469766520746f206d696e740000000000604482015290519081900360640190fd5b60005b81518110156115d45761148982828151811061147c57fe5b6020026020010151612216565b156114f557604080517f08c379a000000000000000000000000000000000000000000000000000000000815260206004820181905260248201527f46616d696c6961722068617320616c7265616479206265656e206d696e746564604482015290519081900360640190fd5b60007f000000000000000000000000000000000000000000000000000000000000000073ffffffffffffffffffffffffffffffffffffffff16636352211e84848151811061153f57fe5b60200260200101516040518263ffffffff1660e01b81526004018082815260200191505060206040518083038186803b15801561157b57600080fd5b505afa15801561158f573d6000803e3d6000fd5b505050506040513d60208110156115a557600080fd5b505183519091506115cb9082908590859081106115be57fe5b60200260200101516125f1565b50600101611464565b50506001600a55565b60006115e882612216565b156115f557506000610b17565b7f000000000000000000000000000000000000000000000000000000000000000073ffffffffffffffffffffffffffffffffffffffff16636352211e836040518263ffffffff1660e01b81526004018082815260200191505060206040518083038186803b15801561166657600080fd5b505afa92505050801561168b57506040513d602081101561168657600080fd5b505160015b61169757506001610b17565b5060009050610b17565b600b5473ffffffffffffffffffffffffffffffffffffffff1690565b60078054604080516020601f60027fffffffffffffffffffffffffffffffffffffffffffffffffffffffffffffffff610100600188161502019095169490940493840181900481028201810190925282815260609390929091830182828015610bc65780601f10610b9b57610100808354040283529160200191610bc6565b6002600a5414156117ae57604080517f08c379a000000000000000000000000000000000000000000000000000000000815260206004820152601f60248201527f5265656e7472616e637947756172643a207265656e7472616e742063616c6c00604482015290519081900360640190fd5b6002600a558051600c543491021115611812576040517f08c379a00000000000000000000000000000000000000000000000000000000081526004018080602001828103825260218152602001806134d06021913960400191505060405180910390fd5b60005b81518110156115d45761183a82828151811061182d57fe5b602002602001015161260b565b600101611815565b6002600a5414156118b457604080517f08c379a000000000000000000000000000000000000000000000000000000000815260206004820152601f60248201527f5265656e7472616e637947756172643a207265656e7472616e742063616c6c00604482015290519081900360640190fd5b6002600a55600c54341015611914576040517f08c379a00000000000000000000000000000000000000000000000000000000081526004018080602001828103825260218152602001806134d06021913960400191505060405180910390fd5b61191d8161260b565b506001600a55565b61192d612223565b73ffffffffffffffffffffffffffffffffffffffff168273ffffffffffffffffffffffffffffffffffffffff1614156119c757604080517f08c379a000000000000000000000000000000000000000000000000000000000815260206004820152601960248201527f4552433732313a20617070726f766520746f2063616c6c657200000000000000604482015290519081900360640190fd5b80600560006119d4612223565b73ffffffffffffffffffffffffffffffffffffffff90811682526020808301939093526040918201600090812091871680825291909352912080547fffffffffffffffffffffffffffffffffffffffffffffffffffffffffffffff001692151592909217909155611a43612223565b73ffffffffffffffffffffffffffffffffffffffff167f17307eab39ab6107e8899845ad3d59bd9653f200f220920489ca2b5937696c318360405180821515815260200191505060405180910390a35050565b600c5481565b606081831115611b0d57604080517f08c379a000000000000000000000000000000000000000000000000000000000815260206004820152600d60248201527f496e76616c69642072616e676500000000000000000000000000000000000000604482015290519081900360640190fd5b82820360008167ffffffffffffffff81118015611b2957600080fd5b50604051908082528060200260200182016040528015611b53578160200160208202803683370190505b50905060005b82811015611b9557858101611b6d816115dd565b15611b8c5780838381518110611b7f57fe5b6020026020010181815250505b50600101611b59565b50949350505050565b611baf611ba9612223565b836122d2565b611c04576040517f08c379a00000000000000000000000000000000000000000000000000000000081526004018080602001828103825260318152602001806137156031913960400191505060405180910390fd5b611c1084848484612868565b50505050565b611c1e612223565b73ffffffffffffffffffffffffffffffffffffffff16611c3c6116a1565b73ffffffffffffffffffffffffffffffffffffffff1614611cbe57604080517f08c379a000000000000000000000000000000000000000000000000000000000815260206004820181905260248201527f4f776e61626c653a2063616c6c6572206973206e6f7420746865206f776e6572604482015290519081900360640190fd5b600c55565b6060611cce82612216565b611d23576040517f08c379a000000000000000000000000000000000000000000000000000000000815260040180806020018281038252602f8152602001806136c5602f913960400191505060405180910390fd5b60008281526008602090815260408083208054825160026001831615610100027fffffffffffffffffffffffffffffffffffffffffffffffffffffffffffffffff0190921691909104601f810185900485028201850190935282815292909190830182828015611dd45780601f10611da957610100808354040283529160200191611dd4565b820191906000526020600020905b815481529060010190602001808311611db757829003601f168201915b505050505090506000611de5611123565b9050805160001415611df957509050610b17565b815115611f145780826040516020018083805190602001908083835b60208310611e5257805182527fffffffffffffffffffffffffffffffffffffffffffffffffffffffffffffffe09092019160209182019101611e15565b51815160209384036101000a7fffffffffffffffffffffffffffffffffffffffffffffffffffffffffffffffff018019909216911617905285519190930192850191508083835b60208310611ed657805182527fffffffffffffffffffffffffffffffffffffffffffffffffffffffffffffffe09092019160209182019101611e99565b6001836020036101000a0380198251168184511680821785525050505050509050019250505060405160208183030381529060405292505050610b17565b80611f1e856128d4565b6040516020018083805190602001908083835b60208310611f6e57805182527fffffffffffffffffffffffffffffffffffffffffffffffffffffffffffffffe09092019160209182019101611f31565b51815160209384036101000a7fffffffffffffffffffffffffffffffffffffffffffffffffffffffffffffffff018019909216911617905285519190930192850191508083835b60208310611ff257805182527fffffffffffffffffffffffffffffffffffffffffffffffffffffffffffffffe09092019160209182019101611fb5565b6001836020036101000a0380198251168184511680821785525050505050509050019250505060405160208183030381529060405292505050919050565b73ffffffffffffffffffffffffffffffffffffffff918216600090815260056020908152604080832093909416825291909152205460ff1690565b600d5460ff1681565b61207c612223565b73ffffffffffffffffffffffffffffffffffffffff1661209a6116a1565b73ffffffffffffffffffffffffffffffffffffffff161461211c57604080517f08c379a000000000000000000000000000000000000000000000000000000000815260206004820181905260248201527f4f776e61626c653a2063616c6c6572206973206e6f7420746865206f776e6572604482015290519081900360640190fd5b73ffffffffffffffffffffffffffffffffffffffff8116612188576040517f08c379a00000000000000000000000000000000000000000000000000000000081526004018080602001828103825260268152602001806135236026913960400191505060405180910390fd5b600b5460405173ffffffffffffffffffffffffffffffffffffffff8084169216907f8be0079c531659141344cd1fd0a4f28419497f9722a3daafe3b4186f6b6457e090600090a3600b80547fffffffffffffffffffffffff00000000000000000000000000000000000000001673ffffffffffffffffffffffffffffffffffffffff92909216919091179055565b6000610e506002836129f8565b3390565b600081815260046020526040902080547fffffffffffffffffffffffff00000000000000000000000000000000000000001673ffffffffffffffffffffffffffffffffffffffff84169081179091558190612281826110fb565b73ffffffffffffffffffffffffffffffffffffffff167f8c5be1e5ebec7d5bd14f71427d1e84f3dd0314c0f7b2291e5b200ac8c7c3b92560405160405180910390a45050565b6000610e5082612a04565b60006122dd82612216565b612332576040517f08c379a000000000000000000000000000000000000000000000000000000000815260040180806020018281038252602c81526020018061356d602c913960400191505060405180910390fd5b600061233d836110fb565b90508073ffffffffffffffffffffffffffffffffffffffff168473ffffffffffffffffffffffffffffffffffffffff1614806123ac57508373ffffffffffffffffffffffffffffffffffffffff1661239484610bd0565b73ffffffffffffffffffffffffffffffffffffffff16145b806123bc57506123bc8185612030565b949350505050565b8273ffffffffffffffffffffffffffffffffffffffff166123e4826110fb565b73ffffffffffffffffffffffffffffffffffffffff1614612450576040517f08c379a000000000000000000000000000000000000000000000000000000000815260040180806020018281038252602981526020018061369c6029913960400191505060405180910390fd5b73ffffffffffffffffffffffffffffffffffffffff82166124bc576040517f08c379a00000000000000000000000000000000000000000000000000000000081526004018080602001828103825260248152602001806135496024913960400191505060405180910390fd5b6124c7838383610d97565b6124d2600082612227565b73ffffffffffffffffffffffffffffffffffffffff831660009081526001602052604090206125019082612a08565b5073ffffffffffffffffffffffffffffffffffffffff821660009081526001602052604090206125319082612a14565b5061253e60028284612a20565b50808273ffffffffffffffffffffffffffffffffffffffff168473ffffffffffffffffffffffffffffffffffffffff167fddf252ad1be2c89b69c2b068fc378daa952ba7f163c4a11628f55a4df523b3ef60405160405180910390a4505050565b6000610e4d8383612a43565b60008080806125ba8686612ac1565b9097909650945050505050565b805161100790600990602084019061340c565b60006125e7848484612b56565b90505b9392505050565b611007828260405180602001604052806000815250612c3a565b600d5460ff1661267c57604080517f08c379a000000000000000000000000000000000000000000000000000000000815260206004820152601b60248201527f53616c65206d7573742062652061637469766520746f206d696e740000000000604482015290519081900360640190fd5b60008111801561268d5750611f4181105b6126f857604080517f08c379a000000000000000000000000000000000000000000000000000000000815260206004820152601060248201527f546f6b656e20494420696e76616c696400000000000000000000000000000000604482015290519081900360640190fd5b61270181612216565b1561276d57604080517f08c379a000000000000000000000000000000000000000000000000000000000815260206004820181905260248201527f46616d696c6961722068617320616c7265616479206265656e206d696e746564604482015290519081900360640190fd5b7f000000000000000000000000000000000000000000000000000000000000000073ffffffffffffffffffffffffffffffffffffffff16636352211e826040518263ffffffff1660e01b81526004018082815260200191505060206040518083038186803b1580156127de57600080fd5b505afa92505050801561280357506040513d60208110156127fe57600080fd5b505160015b6128165761281133826125f1565b6110f8565b506040517f08c379a000000000000000000000000000000000000000000000000000000000815260040180806020018281038252602a815260200180613672602a913960400191505060405180910390fd5b6128738484846123c4565b61287f84848484612ca6565b611c10576040517f08c379a00000000000000000000000000000000000000000000000000000000081526004018080602001828103825260328152602001806134f16032913960400191505060405180910390fd5b606081612915575060408051808201909152600181527f30000000000000000000000000000000000000000000000000000000000000006020820152610b17565b8160005b811561292d57600101600a82049150612919565b60008167ffffffffffffffff8111801561294657600080fd5b506040519080825280601f01601f191660200182016040528015612971576020820181803683370190505b5085935090507fffffffffffffffffffffffffffffffffffffffffffffffffffffffffffffffff82015b8315611b9557600a840660300160f81b828280600190039350815181106129be57fe5b60200101907effffffffffffffffffffffffffffffffffffffffffffffffffffffffffffff1916908160001a905350600a8404935061299b565b6000610e4d8383612eb6565b5490565b6000610e4d8383612ece565b6000610e4d8383612fb2565b60006125e7848473ffffffffffffffffffffffffffffffffffffffff8516612ffc565b81546000908210612a9f576040517f08c379a00000000000000000000000000000000000000000000000000000000081526004018080602001828103825260228152602001806134ae6022913960400191505060405180910390fd5b826000018281548110612aae57fe5b9060005260206000200154905092915050565b815460009081908310612b1f576040517f08c379a00000000000000000000000000000000000000000000000000000000081526004018080602001828103825260228152602001806136246022913960400191505060405180910390fd5b6000846000018481548110612b3057fe5b906000526020600020906002020190508060000154816001015492509250509250929050565b60008281526001840160205260408120548281612c0b576040517f08c379a00000000000000000000000000000000000000000000000000000000081526004018080602001828103825283818151815260200191508051906020019080838360005b83811015612bd0578181015183820152602001612bb8565b50505050905090810190601f168015612bfd5780820380516001836020036101000a031916815260200191505b509250505060405180910390fd5b50846000016001820381548110612c1e57fe5b9060005260206000209060020201600101549150509392505050565b612c448383613093565b612c516000848484612ca6565b610d97576040517f08c379a00000000000000000000000000000000000000000000000000000000081526004018080602001828103825260328152602001806134f16032913960400191505060405180910390fd5b6000612cc78473ffffffffffffffffffffffffffffffffffffffff1661321c565b612cd3575060016123bc565b6000612e4b7f150b7a0200000000000000000000000000000000000000000000000000000000612d01612223565b888787604051602401808573ffffffffffffffffffffffffffffffffffffffff1681526020018473ffffffffffffffffffffffffffffffffffffffff16815260200183815260200180602001828103825283818151815260200191508051906020019080838360005b83811015612d82578181015183820152602001612d6a565b50505050905090810190601f168015612daf5780820380516001836020036101000a031916815260200191505b5095505050505050604051602081830303815290604052907bffffffffffffffffffffffffffffffffffffffffffffffffffffffff19166020820180517bffffffffffffffffffffffffffffffffffffffffffffffffffffffff83818316178352505050506040518060600160405280603281526020016134f16032913973ffffffffffffffffffffffffffffffffffffffff88169190613222565b90506000818060200190516020811015612e6457600080fd5b50517fffffffff00000000000000000000000000000000000000000000000000000000167f150b7a02000000000000000000000000000000000000000000000000000000001492505050949350505050565b60009081526001919091016020526040902054151590565b60008181526001830160205260408120548015612fa85783547fffffffffffffffffffffffffffffffffffffffffffffffffffffffffffffffff8083019190810190600090879083908110612f1f57fe5b9060005260206000200154905080876000018481548110612f3c57fe5b600091825260208083209091019290925582815260018981019092526040902090840190558654879080612f6c57fe5b60019003818190600052602060002001600090559055866001016000878152602001908152602001600020600090556001945050505050610e50565b6000915050610e50565b6000612fbe8383612eb6565b612ff457508154600181810184556000848152602080822090930184905584548482528286019093526040902091909155610e50565b506000610e50565b6000828152600184016020526040812054806130615750506040805180820182528381526020808201848152865460018181018955600089815284812095516002909302909501918255915190820155865486845281880190925292909120556125ea565b8285600001600183038154811061307457fe5b90600052602060002090600202016001018190555060009150506125ea565b73ffffffffffffffffffffffffffffffffffffffff821661311557604080517f08c379a000000000000000000000000000000000000000000000000000000000815260206004820181905260248201527f4552433732313a206d696e7420746f20746865207a65726f2061646472657373604482015290519081900360640190fd5b61311e81612216565b1561318a57604080517f08c379a000000000000000000000000000000000000000000000000000000000815260206004820152601c60248201527f4552433732313a20746f6b656e20616c7265616479206d696e74656400000000604482015290519081900360640190fd5b61319660008383610d97565b73ffffffffffffffffffffffffffffffffffffffff821660009081526001602052604090206131c59082612a14565b506131d260028284612a20565b50604051819073ffffffffffffffffffffffffffffffffffffffff8416906000907fddf252ad1be2c89b69c2b068fc378daa952ba7f163c4a11628f55a4df523b3ef908290a45050565b3b151590565b60606125e78484600085856132368561321c565b6132a157604080517f08c379a000000000000000000000000000000000000000000000000000000000815260206004820152601d60248201527f416464726573733a2063616c6c20746f206e6f6e2d636f6e7472616374000000604482015290519081900360640190fd5b6000808673ffffffffffffffffffffffffffffffffffffffff1685876040518082805190602001908083835b6020831061330a57805182527fffffffffffffffffffffffffffffffffffffffffffffffffffffffffffffffe090920191602091820191016132cd565b6001836020036101000a03801982511681845116808217855250505050505090500191505060006040518083038185875af1925050503d806000811461336c576040519150601f19603f3d011682016040523d82523d6000602084013e613371565b606091505b509150915061338182828661338c565b979650505050505050565b6060831561339b5750816125ea565b8251156133ab5782518084602001fd5b6040517f08c379a0000000000000000000000000000000000000000000000000000000008152602060048201818152845160248401528451859391928392604401919085019080838360008315612bd0578181015183820152602001612bb8565b828054600181600116156101000203166002900490600052602060002090601f0160209004810192826134425760008555613488565b82601f1061345b57805160ff1916838001178555613488565b82800160010185558215613488579182015b8281111561348857825182559160200191906001019061346d565b50613494929150613498565b5090565b5b80821115613494576000815560010161349956fe456e756d657261626c655365743a20696e646578206f7574206f6620626f756e6473457468657220616d6f756e742073656e7420697320696e73756666696369656e744552433732313a207472616e7366657220746f206e6f6e20455243373231526563656976657220696d706c656d656e7465724f776e61626c653a206e6577206f776e657220697320746865207a65726f20616464726573734552433732313a207472616e7366657220746f20746865207a65726f20616464726573734552433732313a206f70657261746f7220717565727920666f72206e6f6e6578697374656e7420746f6b656e4552433732313a20617070726f76652063616c6c6572206973206e6f74206f776e6572206e6f7220617070726f76656420666f7220616c6c4552433732313a2062616c616e636520717565727920666f7220746865207a65726f20616464726573734552433732313a206f776e657220717565727920666f72206e6f6e6578697374656e7420746f6b656e456e756d657261626c654d61703a20696e646578206f7574206f6620626f756e64734552433732313a20617070726f76656420717565727920666f72206e6f6e6578697374656e7420746f6b656e46616d696c69617220697320726573657276656420666f722056312066616d696c696172206f776e65724552433732313a207472616e73666572206f6620746f6b656e2074686174206973206e6f74206f776e4552433732314d657461646174613a2055524920717565727920666f72206e6f6e6578697374656e7420746f6b656e4552433732313a20617070726f76616c20746f2063757272656e74206f776e65724552433732313a207472616e736665722063616c6c6572206973206e6f74206f776e6572206e6f7220617070726f766564a26469706673582212200cd95ab836593b86fd8a33bfb0a3ede6d8daea88ec180b7d2cd96e1d42d9a55b64736f6c63430007060033",
  "linkReferences": {},
  "deployedLinkReferences": {}
}