{
  "_format": "hh-sol-artifact-1",
  "contractName": "LootFamiliars",
  "sourceName": "contracts/LootFamiliars.sol",
  "abi": [
    {
      "inputs": [
        {
          "internalType": "address",
          "name": "v1Address",
          "type": "address"
        }
      ],
      "stateMutability": "nonpayable",
      "type": "constructor"
    },
    {
      "anonymous": false,
      "inputs": [
        {
          "indexed": true,
          "internalType": "address",
          "name": "owner",
          "type": "address"
        },
        {
          "indexed": true,
          "internalType": "address",
          "name": "approved",
          "type": "address"
        },
        {
          "indexed": true,
          "internalType": "uint256",
          "name": "tokenId",
          "type": "uint256"
        }
      ],
      "name": "Approval",
      "type": "event"
    },
    {
      "anonymous": false,
      "inputs": [
        {
          "indexed": true,
          "internalType": "address",
          "name": "owner",
          "type": "address"
        },
        {
          "indexed": true,
          "internalType": "address",
          "name": "operator",
          "type": "address"
        },
        {
          "indexed": false,
          "internalType": "bool",
          "name": "approved",
          "type": "bool"
        }
      ],
      "name": "ApprovalForAll",
      "type": "event"
    },
    {
      "anonymous": false,
      "inputs": [
        {
          "indexed": true,
          "internalType": "address",
          "name": "previousOwner",
          "type": "address"
        },
        {
          "indexed": true,
          "internalType": "address",
          "name": "newOwner",
          "type": "address"
        }
      ],
      "name": "OwnershipTransferred",
      "type": "event"
    },
    {
      "anonymous": false,
      "inputs": [
        {
          "indexed": true,
          "internalType": "address",
          "name": "from",
          "type": "address"
        },
        {
          "indexed": true,
          "internalType": "address",
          "name": "to",
          "type": "address"
        },
        {
          "indexed": true,
          "internalType": "uint256",
          "name": "tokenId",
          "type": "uint256"
        }
      ],
      "name": "Transfer",
      "type": "event"
    },
    {
      "inputs": [],
      "name": "V1_FAMILIAR_ADDRESS",
      "outputs": [
        {
          "internalType": "address",
          "name": "",
          "type": "address"
        }
      ],
      "stateMutability": "view",
      "type": "function"
    },
    {
      "inputs": [
        {
          "internalType": "uint256[]",
          "name": "lootIds",
          "type": "uint256[]"
        }
      ],
      "name": "airdropWithV1Familiars",
      "outputs": [],
      "stateMutability": "nonpayable",
      "type": "function"
    },
    {
      "inputs": [
        {
          "internalType": "address",
          "name": "to",
          "type": "address"
        },
        {
          "internalType": "uint256",
          "name": "tokenId",
          "type": "uint256"
        }
      ],
      "name": "approve",
      "outputs": [],
      "stateMutability": "nonpayable",
      "type": "function"
    },
    {
      "inputs": [
        {
          "internalType": "address",
          "name": "owner",
          "type": "address"
        }
      ],
      "name": "balanceOf",
      "outputs": [
        {
          "internalType": "uint256",
          "name": "",
          "type": "uint256"
        }
      ],
      "stateMutability": "view",
      "type": "function"
    },
    {
      "inputs": [],
      "name": "baseURI",
      "outputs": [
        {
          "internalType": "string",
          "name": "",
          "type": "string"
        }
      ],
      "stateMutability": "view",
      "type": "function"
    },
    {
      "inputs": [],
      "name": "flipSaleState",
      "outputs": [],
      "stateMutability": "nonpayable",
      "type": "function"
    },
    {
      "inputs": [
        {
          "internalType": "uint256",
          "name": "tokenId",
          "type": "uint256"
        }
      ],
      "name": "getApproved",
      "outputs": [
        {
          "internalType": "address",
          "name": "",
          "type": "address"
        }
      ],
      "stateMutability": "view",
      "type": "function"
    },
    {
      "inputs": [
        {
          "internalType": "address",
          "name": "owner",
          "type": "address"
        },
        {
          "internalType": "address",
          "name": "operator",
          "type": "address"
        }
      ],
      "name": "isApprovedForAll",
      "outputs": [
        {
          "internalType": "bool",
          "name": "",
          "type": "bool"
        }
      ],
      "stateMutability": "view",
      "type": "function"
    },
    {
      "inputs": [
        {
          "internalType": "uint256",
          "name": "tokenId",
          "type": "uint256"
        }
      ],
      "name": "lootExpansionTokenUritokenURI",
      "outputs": [
        {
          "internalType": "string",
          "name": "",
          "type": "string"
        }
      ],
      "stateMutability": "view",
      "type": "function"
    },
    {
      "inputs": [
        {
          "internalType": "uint256",
          "name": "lootId",
          "type": "uint256"
        }
      ],
      "name": "mint",
      "outputs": [],
      "stateMutability": "payable",
      "type": "function"
    },
    {
      "inputs": [
        {
          "internalType": "uint256[]",
          "name": "lootIds",
          "type": "uint256[]"
        }
      ],
      "name": "multiMint",
      "outputs": [],
      "stateMutability": "payable",
      "type": "function"
    },
    {
      "inputs": [],
      "name": "name",
      "outputs": [
        {
          "internalType": "string",
          "name": "",
          "type": "string"
        }
      ],
      "stateMutability": "view",
      "type": "function"
    },
    {
      "inputs": [],
      "name": "owner",
      "outputs": [
        {
          "internalType": "address",
          "name": "",
          "type": "address"
        }
      ],
      "stateMutability": "view",
      "type": "function"
    },
    {
      "inputs": [
        {
          "internalType": "uint256",
          "name": "tokenId",
          "type": "uint256"
        }
      ],
      "name": "ownerOf",
      "outputs": [
        {
          "internalType": "address",
          "name": "",
          "type": "address"
        }
      ],
      "stateMutability": "view",
      "type": "function"
    },
    {
      "inputs": [],
      "name": "publicPrice",
      "outputs": [
        {
          "internalType": "uint256",
          "name": "",
          "type": "uint256"
        }
      ],
      "stateMutability": "view",
      "type": "function"
    },
    {
      "inputs": [],
      "name": "renounceOwnership",
      "outputs": [],
      "stateMutability": "nonpayable",
      "type": "function"
    },
    {
      "inputs": [
        {
          "internalType": "address",
          "name": "from",
          "type": "address"
        },
        {
          "internalType": "address",
          "name": "to",
          "type": "address"
        },
        {
          "internalType": "uint256",
          "name": "tokenId",
          "type": "uint256"
        }
      ],
      "name": "safeTransferFrom",
      "outputs": [],
      "stateMutability": "nonpayable",
      "type": "function"
    },
    {
      "inputs": [
        {
          "internalType": "address",
          "name": "from",
          "type": "address"
        },
        {
          "internalType": "address",
          "name": "to",
          "type": "address"
        },
        {
          "internalType": "uint256",
          "name": "tokenId",
          "type": "uint256"
        },
        {
          "internalType": "bytes",
          "name": "_data",
          "type": "bytes"
        }
      ],
      "name": "safeTransferFrom",
      "outputs": [],
      "stateMutability": "nonpayable",
      "type": "function"
    },
    {
      "inputs": [],
      "name": "saleIsActive",
      "outputs": [
        {
          "internalType": "bool",
          "name": "",
          "type": "bool"
        }
      ],
      "stateMutability": "view",
      "type": "function"
    },
    {
      "inputs": [
        {
          "internalType": "address",
          "name": "operator",
          "type": "address"
        },
        {
          "internalType": "bool",
          "name": "approved",
          "type": "bool"
        }
      ],
      "name": "setApprovalForAll",
      "outputs": [],
      "stateMutability": "nonpayable",
      "type": "function"
    },
    {
      "inputs": [
        {
          "internalType": "string",
          "name": "baseURI",
          "type": "string"
        }
      ],
      "name": "setBaseURI",
      "outputs": [],
      "stateMutability": "nonpayable",
      "type": "function"
    },
    {
      "inputs": [
        {
          "internalType": "uint256",
          "name": "newPrice",
          "type": "uint256"
        }
      ],
      "name": "setPublicPrice",
      "outputs": [],
      "stateMutability": "nonpayable",
      "type": "function"
    },
    {
      "inputs": [
        {
          "internalType": "bytes4",
          "name": "interfaceId",
          "type": "bytes4"
        }
      ],
      "name": "supportsInterface",
      "outputs": [
        {
          "internalType": "bool",
          "name": "",
          "type": "bool"
        }
      ],
      "stateMutability": "view",
      "type": "function"
    },
    {
      "inputs": [],
      "name": "symbol",
      "outputs": [
        {
          "internalType": "string",
          "name": "",
          "type": "string"
        }
      ],
      "stateMutability": "view",
      "type": "function"
    },
    {
      "inputs": [
        {
          "internalType": "uint256",
          "name": "index",
          "type": "uint256"
        }
      ],
      "name": "tokenByIndex",
      "outputs": [
        {
          "internalType": "uint256",
          "name": "",
          "type": "uint256"
        }
      ],
      "stateMutability": "view",
      "type": "function"
    },
    {
      "inputs": [
        {
          "internalType": "address",
          "name": "owner",
          "type": "address"
        },
        {
          "internalType": "uint256",
          "name": "index",
          "type": "uint256"
        }
      ],
      "name": "tokenOfOwnerByIndex",
      "outputs": [
        {
          "internalType": "uint256",
          "name": "",
          "type": "uint256"
        }
      ],
      "stateMutability": "view",
      "type": "function"
    },
    {
      "inputs": [
        {
          "internalType": "uint256",
          "name": "tokenId",
          "type": "uint256"
        }
      ],
      "name": "tokenURI",
      "outputs": [
        {
          "internalType": "string",
          "name": "",
          "type": "string"
        }
      ],
      "stateMutability": "view",
      "type": "function"
    },
    {
      "inputs": [],
      "name": "totalSupply",
      "outputs": [
        {
          "internalType": "uint256",
          "name": "",
          "type": "uint256"
        }
      ],
      "stateMutability": "view",
      "type": "function"
    },
    {
      "inputs": [
        {
          "internalType": "address",
          "name": "from",
          "type": "address"
        },
        {
          "internalType": "address",
          "name": "to",
          "type": "address"
        },
        {
          "internalType": "uint256",
          "name": "tokenId",
          "type": "uint256"
        }
      ],
      "name": "transferFrom",
      "outputs": [],
      "stateMutability": "nonpayable",
      "type": "function"
    },
    {
      "inputs": [
        {
          "internalType": "address",
          "name": "newOwner",
          "type": "address"
        }
      ],
      "name": "transferOwnership",
      "outputs": [],
      "stateMutability": "nonpayable",
      "type": "function"
    },
    {
      "inputs": [],
      "name": "withdraw",
      "outputs": [],
      "stateMutability": "nonpayable",
      "type": "function"
    }
  ],
  "bytecode": "0x60c06040526702c68af0bb140000600c55600d805460ff191660011790553480156200002a57600080fd5b50604051620037e7380380620037e7833981810160405260208110156200005057600080fd5b5051604080518082018252601b81527f46616d696c696172732028666f7220416476656e7475726572732900000000006020828101919091528251808401909352600d83526c4c6f6f7446616d696c6961727360981b9083015290620000bd6301ffc9a760e01b6200019b565b8151620000d290600690602085019062000224565b508051620000e890600790602084019062000224565b50620000fb6380ac58cd60e01b6200019b565b6200010d635b5e139f60e01b6200019b565b6200011f63780e9d6360e01b6200019b565b50506001600a5560006200013262000220565b600b80546001600160a01b0319166001600160a01b038316908117909155604051919250906000907f8be0079c531659141344cd1fd0a4f28419497f9722a3daafe3b4186f6b6457e0908290a35060601b6001600160601b031916608081905260a052620002d0565b6001600160e01b03198082161415620001fb576040805162461bcd60e51b815260206004820152601c60248201527f4552433136353a20696e76616c696420696e7465726661636520696400000000604482015290519081900360640190fd5b6001600160e01b0319166000908152602081905260409020805460ff19166001179055565b3390565b828054600181600116156101000203166002900490600052602060002090601f0160209004810192826200025c5760008555620002a7565b82601f106200027757805160ff1916838001178555620002a7565b82800160010185558215620002a7579182015b82811115620002a75782518255916020019190600101906200028a565b50620002b5929150620002b9565b5090565b5b80821115620002b55760008155600101620002ba565b60805160601c60a05160601c6134e8620002ff6000398061142d52806124d352508061128b52506134e86000f3fe6080604052600436106101d85760003560e01c806370a0823111610102578063a22cb46511610095578063c87b56dd11610064578063c87b56dd1461094a578063e985e9c514610974578063eb8d2444146109bc578063f2fde38b146109d1576101d8565b8063a22cb465146107e3578063a945bf801461082b578063b88d4fde14610840578063c627525514610920576101d8565b80638da5cb5b116100d15780638da5cb5b146106f957806395d89b411461070e5780639a0e4ebb14610723578063a0712d68146107c6576101d8565b806370a08231146105df578063715018a61461061f57806373b8d29e146106345780637d086ec614610649576101d8565b80632f745c591161017a5780634f6ccce7116101495780634f6ccce7146104c357806355f804b3146104ed5780636352211e146105a05780636c0360eb146105ca576101d8565b80632f745c591461040357806334918dfd146104495780633ccfd60b1461045e57806342842e0e14610473576101d8565b8063095ea7b3116101b6578063095ea7b31461031a57806318160ddd14610362578063232f07271461038957806323b872dd146103b3576101d8565b806301ffc9a7146101dd57806306fdde031461023d578063081812fc146102c7575b600080fd5b3480156101e957600080fd5b506102296004803603602081101561020057600080fd5b50357fffffffff0000000000000000000000000000000000000000000000000000000016610a11565b604080519115158252519081900360200190f35b34801561024957600080fd5b50610252610a4c565b6040805160208082528351818301528351919283929083019185019080838360005b8381101561028c578181015183820152602001610274565b50505050905090810190601f1680156102b95780820380516001836020036101000a031916815260200191505b509250505060405180910390f35b3480156102d357600080fd5b506102f1600480360360208110156102ea57600080fd5b5035610b00565b6040805173ffffffffffffffffffffffffffffffffffffffff9092168252519081900360200190f35b34801561032657600080fd5b506103606004803603604081101561033d57600080fd5b5073ffffffffffffffffffffffffffffffffffffffff8135169060200135610b89565b005b34801561036e57600080fd5b50610377610ccc565b60408051918252519081900360200190f35b34801561039557600080fd5b50610252600480360360208110156103ac57600080fd5b5035610cdd565b3480156103bf57600080fd5b50610360600480360360608110156103d657600080fd5b5073ffffffffffffffffffffffffffffffffffffffff813581169160208101359091169060400135610cee565b34801561040f57600080fd5b506103776004803603604081101561042657600080fd5b5073ffffffffffffffffffffffffffffffffffffffff8135169060200135610d5f565b34801561045557600080fd5b50610360610d95565b34801561046a57600080fd5b50610360610e6f565b34801561047f57600080fd5b506103606004803603606081101561049657600080fd5b5073ffffffffffffffffffffffffffffffffffffffff813581169160208101359091169060400135610f4a565b3480156104cf57600080fd5b50610377600480360360208110156104e657600080fd5b5035610f65565b3480156104f957600080fd5b506103606004803603602081101561051057600080fd5b81019060208101813564010000000081111561052b57600080fd5b82018360208201111561053d57600080fd5b8035906020019184600183028401116401000000008311171561055f57600080fd5b91908080601f016020809104026020016040519081016040528093929190818152602001838380828437600092019190915250929550610f7b945050505050565b3480156105ac57600080fd5b506102f1600480360360208110156105c357600080fd5b503561102f565b3480156105d657600080fd5b50610252611057565b3480156105eb57600080fd5b506103776004803603602081101561060257600080fd5b503573ffffffffffffffffffffffffffffffffffffffff166110d6565b34801561062b57600080fd5b50610360611172565b34801561064057600080fd5b506102f1611289565b34801561065557600080fd5b506103606004803603602081101561066c57600080fd5b81019060208101813564010000000081111561068757600080fd5b82018360208201111561069957600080fd5b803590602001918460208302840111640100000000831117156106bb57600080fd5b9190808060200260200160405190810160405280939291908181526020018383602002808284376000920191909152509295506112ad945050505050565b34801561070557600080fd5b506102f1611511565b34801561071a57600080fd5b5061025261152d565b6103606004803603602081101561073957600080fd5b81019060208101813564010000000081111561075457600080fd5b82018360208201111561076657600080fd5b8035906020019184602083028401116401000000008311171561078857600080fd5b9190808060200260200160405190810160405280939291908181526020018383602002808284376000920191909152509295506115ac945050505050565b610360600480360360208110156107dc57600080fd5b50356116b2565b3480156107ef57600080fd5b506103606004803603604081101561080657600080fd5b5073ffffffffffffffffffffffffffffffffffffffff81351690602001351515611795565b34801561083757600080fd5b50610377611906565b34801561084c57600080fd5b506103606004803603608081101561086357600080fd5b73ffffffffffffffffffffffffffffffffffffffff8235811692602081013590911691604082013591908101906080810160608201356401000000008111156108ab57600080fd5b8201836020820111156108bd57600080fd5b803590602001918460018302840111640100000000831117156108df57600080fd5b91908080601f01602080910402602001604051908101604052809392919081815260200183838082843760009201919091525092955061190c945050505050565b34801561092c57600080fd5b506103606004803603602081101561094357600080fd5b5035611984565b34801561095657600080fd5b506102526004803603602081101561096d57600080fd5b5035611a31565b34801561098057600080fd5b506102296004803603604081101561099757600080fd5b5073ffffffffffffffffffffffffffffffffffffffff81358116916020013516611d9e565b3480156109c857600080fd5b50610229611dd9565b3480156109dd57600080fd5b50610360600480360360208110156109f457600080fd5b503573ffffffffffffffffffffffffffffffffffffffff16611de2565b7fffffffff00000000000000000000000000000000000000000000000000000000811660009081526020819052604090205460ff165b919050565b60068054604080516020601f60027fffffffffffffffffffffffffffffffffffffffffffffffffffffffffffffffff610100600188161502019095169490940493840181900481028201810190925282815260609390929091830182828015610af65780601f10610acb57610100808354040283529160200191610af6565b820191906000526020600020905b815481529060010190602001808311610ad957829003601f168201915b5050505050905090565b6000610b0b82611f84565b610b60576040517f08c379a000000000000000000000000000000000000000000000000000000000815260040180806020018281038252602c8152602001806133b3602c913960400191505060405180910390fd5b5060009081526004602052604090205473ffffffffffffffffffffffffffffffffffffffff1690565b6000610b948261102f565b90508073ffffffffffffffffffffffffffffffffffffffff168373ffffffffffffffffffffffffffffffffffffffff161415610c1b576040517f08c379a00000000000000000000000000000000000000000000000000000000081526004018080602001828103825260218152602001806134616021913960400191505060405180910390fd5b8073ffffffffffffffffffffffffffffffffffffffff16610c3a611f91565b73ffffffffffffffffffffffffffffffffffffffff161480610c685750610c6881610c63611f91565b611d9e565b610cbd576040517f08c379a00000000000000000000000000000000000000000000000000000000081526004018080602001828103825260388152602001806133066038913960400191505060405180910390fd5b610cc78383611f95565b505050565b6000610cd86002612035565b905090565b6060610ce882611a31565b92915050565b610cff610cf9611f91565b82612040565b610d54576040517f08c379a00000000000000000000000000000000000000000000000000000000081526004018080602001828103825260318152602001806134826031913960400191505060405180910390fd5b610cc7838383612132565b73ffffffffffffffffffffffffffffffffffffffff82166000908152600160205260408120610d8e908361230d565b9392505050565b610d9d611f91565b73ffffffffffffffffffffffffffffffffffffffff16610dbb611511565b73ffffffffffffffffffffffffffffffffffffffff1614610e3d57604080517f08c379a000000000000000000000000000000000000000000000000000000000815260206004820181905260248201527f4f776e61626c653a2063616c6c6572206973206e6f7420746865206f776e6572604482015290519081900360640190fd5b600d80547fffffffffffffffffffffffffffffffffffffffffffffffffffffffffffffff00811660ff90911615179055565b610e77611f91565b73ffffffffffffffffffffffffffffffffffffffff16610e95611511565b73ffffffffffffffffffffffffffffffffffffffff1614610f1757604080517f08c379a000000000000000000000000000000000000000000000000000000000815260206004820181905260248201527f4f776e61626c653a2063616c6c6572206973206e6f7420746865206f776e6572604482015290519081900360640190fd5b6040514790339082156108fc029083906000818181858888f19350505050158015610f46573d6000803e3d6000fd5b5050565b610cc78383836040518060200160405280600081525061190c565b600080610f73600284612319565b509392505050565b610f83611f91565b73ffffffffffffffffffffffffffffffffffffffff16610fa1611511565b73ffffffffffffffffffffffffffffffffffffffff161461102357604080517f08c379a000000000000000000000000000000000000000000000000000000000815260206004820181905260248201527f4f776e61626c653a2063616c6c6572206973206e6f7420746865206f776e6572604482015290519081900360640190fd5b61102c81612335565b50565b6000610ce8826040518060600160405280602981526020016133686029913960029190612348565b60098054604080516020601f60027fffffffffffffffffffffffffffffffffffffffffffffffffffffffffffffffff610100600188161502019095169490940493840181900481028201810190925282815260609390929091830182828015610af65780601f10610acb57610100808354040283529160200191610af6565b600073ffffffffffffffffffffffffffffffffffffffff8216611144576040517f08c379a000000000000000000000000000000000000000000000000000000000815260040180806020018281038252602a81526020018061333e602a913960400191505060405180910390fd5b73ffffffffffffffffffffffffffffffffffffffff82166000908152600160205260409020610ce890612035565b61117a611f91565b73ffffffffffffffffffffffffffffffffffffffff16611198611511565b73ffffffffffffffffffffffffffffffffffffffff161461121a57604080517f08c379a000000000000000000000000000000000000000000000000000000000815260206004820181905260248201527f4f776e61626c653a2063616c6c6572206973206e6f7420746865206f776e6572604482015290519081900360640190fd5b600b5460405160009173ffffffffffffffffffffffffffffffffffffffff16907f8be0079c531659141344cd1fd0a4f28419497f9722a3daafe3b4186f6b6457e0908390a3600b80547fffffffffffffffffffffffff0000000000000000000000000000000000000000169055565b7f000000000000000000000000000000000000000000000000000000000000000081565b6002600a54141561131f57604080517f08c379a000000000000000000000000000000000000000000000000000000000815260206004820152601f60248201527f5265656e7472616e637947756172643a207265656e7472616e742063616c6c00604482015290519081900360640190fd5b6002600a55600d5460ff1661139557604080517f08c379a000000000000000000000000000000000000000000000000000000000815260206004820152601b60248201527f53616c65206d7573742062652061637469766520746f206d696e740000000000604482015290519081900360640190fd5b60005b8151811015611508576113bd8282815181106113b057fe5b6020026020010151611f84565b1561142957604080517f08c379a000000000000000000000000000000000000000000000000000000000815260206004820181905260248201527f46616d696c6961722068617320616c7265616479206265656e206d696e746564604482015290519081900360640190fd5b60007f000000000000000000000000000000000000000000000000000000000000000073ffffffffffffffffffffffffffffffffffffffff16636352211e84848151811061147357fe5b60200260200101516040518263ffffffff1660e01b81526004018082815260200191505060206040518083038186803b1580156114af57600080fd5b505afa1580156114c3573d6000803e3d6000fd5b505050506040513d60208110156114d957600080fd5b505183519091506114ff9082908590859081106114f257fe5b6020026020010151612355565b50600101611398565b50506001600a55565b600b5473ffffffffffffffffffffffffffffffffffffffff1690565b60078054604080516020601f60027fffffffffffffffffffffffffffffffffffffffffffffffffffffffffffffffff610100600188161502019095169490940493840181900481028201810190925282815260609390929091830182828015610af65780601f10610acb57610100808354040283529160200191610af6565b6002600a54141561161e57604080517f08c379a000000000000000000000000000000000000000000000000000000000815260206004820152601f60248201527f5265656e7472616e637947756172643a207265656e7472616e742063616c6c00604482015290519081900360640190fd5b6002600a558051600c543491021115611682576040517f08c379a000000000000000000000000000000000000000000000000000000000815260040180806020018281038252602181526020018061323d6021913960400191505060405180910390fd5b60005b8151811015611508576116aa82828151811061169d57fe5b602002602001015161236f565b600101611685565b6002600a54141561172457604080517f08c379a000000000000000000000000000000000000000000000000000000000815260206004820152601f60248201527f5265656e7472616e637947756172643a207265656e7472616e742063616c6c00604482015290519081900360640190fd5b6002600a55600c54341015611784576040517f08c379a000000000000000000000000000000000000000000000000000000000815260040180806020018281038252602181526020018061323d6021913960400191505060405180910390fd5b61178d8161236f565b506001600a55565b61179d611f91565b73ffffffffffffffffffffffffffffffffffffffff168273ffffffffffffffffffffffffffffffffffffffff16141561183757604080517f08c379a000000000000000000000000000000000000000000000000000000000815260206004820152601960248201527f4552433732313a20617070726f766520746f2063616c6c657200000000000000604482015290519081900360640190fd5b8060056000611844611f91565b73ffffffffffffffffffffffffffffffffffffffff90811682526020808301939093526040918201600090812091871680825291909352912080547fffffffffffffffffffffffffffffffffffffffffffffffffffffffffffffff0016921515929092179091556118b3611f91565b73ffffffffffffffffffffffffffffffffffffffff167f17307eab39ab6107e8899845ad3d59bd9653f200f220920489ca2b5937696c318360405180821515815260200191505060405180910390a35050565b600c5481565b61191d611917611f91565b83612040565b611972576040517f08c379a00000000000000000000000000000000000000000000000000000000081526004018080602001828103825260318152602001806134826031913960400191505060405180910390fd5b61197e848484846125cc565b50505050565b61198c611f91565b73ffffffffffffffffffffffffffffffffffffffff166119aa611511565b73ffffffffffffffffffffffffffffffffffffffff1614611a2c57604080517f08c379a000000000000000000000000000000000000000000000000000000000815260206004820181905260248201527f4f776e61626c653a2063616c6c6572206973206e6f7420746865206f776e6572604482015290519081900360640190fd5b600c55565b6060611a3c82611f84565b611a91576040517f08c379a000000000000000000000000000000000000000000000000000000000815260040180806020018281038252602f815260200180613432602f913960400191505060405180910390fd5b60008281526008602090815260408083208054825160026001831615610100027fffffffffffffffffffffffffffffffffffffffffffffffffffffffffffffffff0190921691909104601f810185900485028201850190935282815292909190830182828015611b425780601f10611b1757610100808354040283529160200191611b42565b820191906000526020600020905b815481529060010190602001808311611b2557829003601f168201915b505050505090506000611b53611057565b9050805160001415611b6757509050610a47565b815115611c825780826040516020018083805190602001908083835b60208310611bc057805182527fffffffffffffffffffffffffffffffffffffffffffffffffffffffffffffffe09092019160209182019101611b83565b51815160209384036101000a7fffffffffffffffffffffffffffffffffffffffffffffffffffffffffffffffff018019909216911617905285519190930192850191508083835b60208310611c4457805182527fffffffffffffffffffffffffffffffffffffffffffffffffffffffffffffffe09092019160209182019101611c07565b6001836020036101000a0380198251168184511680821785525050505050509050019250505060405160208183030381529060405292505050610a47565b80611c8c85612638565b6040516020018083805190602001908083835b60208310611cdc57805182527fffffffffffffffffffffffffffffffffffffffffffffffffffffffffffffffe09092019160209182019101611c9f565b51815160209384036101000a7fffffffffffffffffffffffffffffffffffffffffffffffffffffffffffffffff018019909216911617905285519190930192850191508083835b60208310611d6057805182527fffffffffffffffffffffffffffffffffffffffffffffffffffffffffffffffe09092019160209182019101611d23565b6001836020036101000a0380198251168184511680821785525050505050509050019250505060405160208183030381529060405292505050919050565b73ffffffffffffffffffffffffffffffffffffffff918216600090815260056020908152604080832093909416825291909152205460ff1690565b600d5460ff1681565b611dea611f91565b73ffffffffffffffffffffffffffffffffffffffff16611e08611511565b73ffffffffffffffffffffffffffffffffffffffff1614611e8a57604080517f08c379a000000000000000000000000000000000000000000000000000000000815260206004820181905260248201527f4f776e61626c653a2063616c6c6572206973206e6f7420746865206f776e6572604482015290519081900360640190fd5b73ffffffffffffffffffffffffffffffffffffffff8116611ef6576040517f08c379a00000000000000000000000000000000000000000000000000000000081526004018080602001828103825260268152602001806132906026913960400191505060405180910390fd5b600b5460405173ffffffffffffffffffffffffffffffffffffffff8084169216907f8be0079c531659141344cd1fd0a4f28419497f9722a3daafe3b4186f6b6457e090600090a3600b80547fffffffffffffffffffffffff00000000000000000000000000000000000000001673ffffffffffffffffffffffffffffffffffffffff92909216919091179055565b6000610ce8600283612765565b3390565b600081815260046020526040902080547fffffffffffffffffffffffff00000000000000000000000000000000000000001673ffffffffffffffffffffffffffffffffffffffff84169081179091558190611fef8261102f565b73ffffffffffffffffffffffffffffffffffffffff167f8c5be1e5ebec7d5bd14f71427d1e84f3dd0314c0f7b2291e5b200ac8c7c3b92560405160405180910390a45050565b6000610ce882612771565b600061204b82611f84565b6120a0576040517f08c379a000000000000000000000000000000000000000000000000000000000815260040180806020018281038252602c8152602001806132da602c913960400191505060405180910390fd5b60006120ab8361102f565b90508073ffffffffffffffffffffffffffffffffffffffff168473ffffffffffffffffffffffffffffffffffffffff16148061211a57508373ffffffffffffffffffffffffffffffffffffffff1661210284610b00565b73ffffffffffffffffffffffffffffffffffffffff16145b8061212a575061212a8185611d9e565b949350505050565b8273ffffffffffffffffffffffffffffffffffffffff166121528261102f565b73ffffffffffffffffffffffffffffffffffffffff16146121be576040517f08c379a00000000000000000000000000000000000000000000000000000000081526004018080602001828103825260298152602001806134096029913960400191505060405180910390fd5b73ffffffffffffffffffffffffffffffffffffffff821661222a576040517f08c379a00000000000000000000000000000000000000000000000000000000081526004018080602001828103825260248152602001806132b66024913960400191505060405180910390fd5b612235838383610cc7565b612240600082611f95565b73ffffffffffffffffffffffffffffffffffffffff8316600090815260016020526040902061226f9082612775565b5073ffffffffffffffffffffffffffffffffffffffff8216600090815260016020526040902061229f9082612781565b506122ac6002828461278d565b50808273ffffffffffffffffffffffffffffffffffffffff168473ffffffffffffffffffffffffffffffffffffffff167fddf252ad1be2c89b69c2b068fc378daa952ba7f163c4a11628f55a4df523b3ef60405160405180910390a4505050565b6000610d8e83836127b0565b6000808080612328868661282e565b9097909650945050505050565b8051610f46906009906020840190613179565b600061212a8484846128c3565b610f468282604051806020016040528060008152506129a7565b600d5460ff166123e057604080517f08c379a000000000000000000000000000000000000000000000000000000000815260206004820152601b60248201527f53616c65206d7573742062652061637469766520746f206d696e740000000000604482015290519081900360640190fd5b6000811180156123f15750611f4181105b61245c57604080517f08c379a000000000000000000000000000000000000000000000000000000000815260206004820152601060248201527f546f6b656e20494420696e76616c696400000000000000000000000000000000604482015290519081900360640190fd5b61246581611f84565b156124d157604080517f08c379a000000000000000000000000000000000000000000000000000000000815260206004820181905260248201527f46616d696c6961722068617320616c7265616479206265656e206d696e746564604482015290519081900360640190fd5b7f000000000000000000000000000000000000000000000000000000000000000073ffffffffffffffffffffffffffffffffffffffff16636352211e826040518263ffffffff1660e01b81526004018082815260200191505060206040518083038186803b15801561254257600080fd5b505afa92505050801561256757506040513d602081101561256257600080fd5b505160015b61257a576125753382612355565b61102c565b506040517f08c379a000000000000000000000000000000000000000000000000000000000815260040180806020018281038252602a8152602001806133df602a913960400191505060405180910390fd5b6125d7848484612132565b6125e384848484612a13565b61197e576040517f08c379a000000000000000000000000000000000000000000000000000000000815260040180806020018281038252603281526020018061325e6032913960400191505060405180910390fd5b606081612679575060408051808201909152600181527f30000000000000000000000000000000000000000000000000000000000000006020820152610a47565b8160005b811561269157600101600a8204915061267d565b60008167ffffffffffffffff811180156126aa57600080fd5b506040519080825280601f01601f1916602001820160405280156126d5576020820181803683370190505b5085935090507fffffffffffffffffffffffffffffffffffffffffffffffffffffffffffffffff82015b831561275c57600a840660300160f81b8282806001900393508151811061272257fe5b60200101907effffffffffffffffffffffffffffffffffffffffffffffffffffffffffffff1916908160001a905350600a840493506126ff565b50949350505050565b6000610d8e8383612c23565b5490565b6000610d8e8383612c3b565b6000610d8e8383612d1f565b600061212a848473ffffffffffffffffffffffffffffffffffffffff8516612d69565b8154600090821061280c576040517f08c379a000000000000000000000000000000000000000000000000000000000815260040180806020018281038252602281526020018061321b6022913960400191505060405180910390fd5b82600001828154811061281b57fe5b9060005260206000200154905092915050565b81546000908190831061288c576040517f08c379a00000000000000000000000000000000000000000000000000000000081526004018080602001828103825260228152602001806133916022913960400191505060405180910390fd5b600084600001848154811061289d57fe5b906000526020600020906002020190508060000154816001015492509250509250929050565b60008281526001840160205260408120548281612978576040517f08c379a00000000000000000000000000000000000000000000000000000000081526004018080602001828103825283818151815260200191508051906020019080838360005b8381101561293d578181015183820152602001612925565b50505050905090810190601f16801561296a5780820380516001836020036101000a031916815260200191505b509250505060405180910390fd5b5084600001600182038154811061298b57fe5b9060005260206000209060020201600101549150509392505050565b6129b18383612e00565b6129be6000848484612a13565b610cc7576040517f08c379a000000000000000000000000000000000000000000000000000000000815260040180806020018281038252603281526020018061325e6032913960400191505060405180910390fd5b6000612a348473ffffffffffffffffffffffffffffffffffffffff16612f89565b612a405750600161212a565b6000612bb87f150b7a0200000000000000000000000000000000000000000000000000000000612a6e611f91565b888787604051602401808573ffffffffffffffffffffffffffffffffffffffff1681526020018473ffffffffffffffffffffffffffffffffffffffff16815260200183815260200180602001828103825283818151815260200191508051906020019080838360005b83811015612aef578181015183820152602001612ad7565b50505050905090810190601f168015612b1c5780820380516001836020036101000a031916815260200191505b5095505050505050604051602081830303815290604052907bffffffffffffffffffffffffffffffffffffffffffffffffffffffff19166020820180517bffffffffffffffffffffffffffffffffffffffffffffffffffffffff838183161783525050505060405180606001604052806032815260200161325e6032913973ffffffffffffffffffffffffffffffffffffffff88169190612f8f565b90506000818060200190516020811015612bd157600080fd5b50517fffffffff00000000000000000000000000000000000000000000000000000000167f150b7a02000000000000000000000000000000000000000000000000000000001492505050949350505050565b60009081526001919091016020526040902054151590565b60008181526001830160205260408120548015612d155783547fffffffffffffffffffffffffffffffffffffffffffffffffffffffffffffffff8083019190810190600090879083908110612c8c57fe5b9060005260206000200154905080876000018481548110612ca957fe5b600091825260208083209091019290925582815260018981019092526040902090840190558654879080612cd957fe5b60019003818190600052602060002001600090559055866001016000878152602001908152602001600020600090556001945050505050610ce8565b6000915050610ce8565b6000612d2b8383612c23565b612d6157508154600181810184556000848152602080822090930184905584548482528286019093526040902091909155610ce8565b506000610ce8565b600082815260018401602052604081205480612dce575050604080518082018252838152602080820184815286546001818101895560008981528481209551600290930290950191825591519082015586548684528188019092529290912055610d8e565b82856000016001830381548110612de157fe5b9060005260206000209060020201600101819055506000915050610d8e565b73ffffffffffffffffffffffffffffffffffffffff8216612e8257604080517f08c379a000000000000000000000000000000000000000000000000000000000815260206004820181905260248201527f4552433732313a206d696e7420746f20746865207a65726f2061646472657373604482015290519081900360640190fd5b612e8b81611f84565b15612ef757604080517f08c379a000000000000000000000000000000000000000000000000000000000815260206004820152601c60248201527f4552433732313a20746f6b656e20616c7265616479206d696e74656400000000604482015290519081900360640190fd5b612f0360008383610cc7565b73ffffffffffffffffffffffffffffffffffffffff82166000908152600160205260409020612f329082612781565b50612f3f6002828461278d565b50604051819073ffffffffffffffffffffffffffffffffffffffff8416906000907fddf252ad1be2c89b69c2b068fc378daa952ba7f163c4a11628f55a4df523b3ef908290a45050565b3b151590565b606061212a848460008585612fa385612f89565b61300e57604080517f08c379a000000000000000000000000000000000000000000000000000000000815260206004820152601d60248201527f416464726573733a2063616c6c20746f206e6f6e2d636f6e7472616374000000604482015290519081900360640190fd5b6000808673ffffffffffffffffffffffffffffffffffffffff1685876040518082805190602001908083835b6020831061307757805182527fffffffffffffffffffffffffffffffffffffffffffffffffffffffffffffffe0909201916020918201910161303a565b6001836020036101000a03801982511681845116808217855250505050505090500191505060006040518083038185875af1925050503d80600081146130d9576040519150601f19603f3d011682016040523d82523d6000602084013e6130de565b606091505b50915091506130ee8282866130f9565b979650505050505050565b60608315613108575081610d8e565b8251156131185782518084602001fd5b6040517f08c379a000000000000000000000000000000000000000000000000000000000815260206004820181815284516024840152845185939192839260440191908501908083836000831561293d578181015183820152602001612925565b828054600181600116156101000203166002900490600052602060002090601f0160209004810192826131af57600085556131f5565b82601f106131c857805160ff19168380011785556131f5565b828001600101855582156131f5579182015b828111156131f55782518255916020019190600101906131da565b50613201929150613205565b5090565b5b80821115613201576000815560010161320656fe456e756d657261626c655365743a20696e646578206f7574206f6620626f756e6473457468657220616d6f756e742073656e7420697320696e73756666696369656e744552433732313a207472616e7366657220746f206e6f6e20455243373231526563656976657220696d706c656d656e7465724f776e61626c653a206e6577206f776e657220697320746865207a65726f20616464726573734552433732313a207472616e7366657220746f20746865207a65726f20616464726573734552433732313a206f70657261746f7220717565727920666f72206e6f6e6578697374656e7420746f6b656e4552433732313a20617070726f76652063616c6c6572206973206e6f74206f776e6572206e6f7220617070726f76656420666f7220616c6c4552433732313a2062616c616e636520717565727920666f7220746865207a65726f20616464726573734552433732313a206f776e657220717565727920666f72206e6f6e6578697374656e7420746f6b656e456e756d657261626c654d61703a20696e646578206f7574206f6620626f756e64734552433732313a20617070726f76656420717565727920666f72206e6f6e6578697374656e7420746f6b656e46616d696c69617220697320726573657276656420666f722056312066616d696c696172206f776e65724552433732313a207472616e73666572206f6620746f6b656e2074686174206973206e6f74206f776e4552433732314d657461646174613a2055524920717565727920666f72206e6f6e6578697374656e7420746f6b656e4552433732313a20617070726f76616c20746f2063757272656e74206f776e65724552433732313a207472616e736665722063616c6c6572206973206e6f74206f776e6572206e6f7220617070726f766564a2646970667358221220cd4a316204568efb200c3201099cacb8e40f8016b51e89691241fe1382d804b664736f6c63430007060033",
  "linkReferences": {},
  "deployedLinkReferences": {}
}