{
  "_format": "hh-sol-artifact-1",
  "contractName": "FlootClaim",
  "sourceName": "contracts/FlootClaim.sol",
  "abi": [
    {
      "inputs": [
        {
          "internalType": "address",
          "name": "_v1FamiliarAddress",
          "type": "address"
        },
        {
          "internalType": "address",
          "name": "_familiarAddress",
          "type": "address"
        },
        {
          "internalType": "address",
          "name": "_flootAddress",
          "type": "address"
        }
      ],
      "stateMutability": "nonpayable",
      "type": "constructor"
    },
    {
      "anonymous": false,
      "inputs": [
        {
          "indexed": true,
          "internalType": "address",
          "name": "previousOwner",
          "type": "address"
        },
        {
          "indexed": true,
          "internalType": "address",
          "name": "newOwner",
          "type": "address"
        }
      ],
      "name": "OwnershipTransferred",
      "type": "event"
    },
    {
      "inputs": [],
      "name": "FAMILIAR_ADDRESS",
      "outputs": [
        {
          "internalType": "address",
          "name": "",
          "type": "address"
        }
      ],
      "stateMutability": "view",
      "type": "function"
    },
    {
      "inputs": [],
      "name": "FLOOT_ADDRESS",
      "outputs": [
        {
          "internalType": "address",
          "name": "",
          "type": "address"
        }
      ],
      "stateMutability": "view",
      "type": "function"
    },
    {
      "inputs": [],
      "name": "FLOOT_PER_FAMILIAR",
      "outputs": [
        {
          "internalType": "uint256",
          "name": "",
          "type": "uint256"
        }
      ],
      "stateMutability": "view",
      "type": "function"
    },
    {
      "inputs": [],
      "name": "UNLOCK_TIME",
      "outputs": [
        {
          "internalType": "uint256",
          "name": "",
          "type": "uint256"
        }
      ],
      "stateMutability": "view",
      "type": "function"
    },
    {
      "inputs": [
        {
          "internalType": "uint256",
          "name": "",
          "type": "uint256"
        }
      ],
      "name": "allowedV1",
      "outputs": [
        {
          "internalType": "bool",
          "name": "",
          "type": "bool"
        }
      ],
      "stateMutability": "view",
      "type": "function"
    },
    {
      "inputs": [
        {
          "internalType": "uint256",
          "name": "_id",
          "type": "uint256"
        }
      ],
      "name": "claim",
      "outputs": [],
      "stateMutability": "nonpayable",
      "type": "function"
    },
    {
      "inputs": [
        {
          "internalType": "uint256",
          "name": "",
          "type": "uint256"
        }
      ],
      "name": "claimed",
      "outputs": [
        {
          "internalType": "bool",
          "name": "",
          "type": "bool"
        }
      ],
      "stateMutability": "view",
      "type": "function"
    },
    {
      "inputs": [
        {
          "internalType": "uint256[]",
          "name": "_ids",
          "type": "uint256[]"
        }
      ],
      "name": "disableV1Claim",
      "outputs": [],
      "stateMutability": "nonpayable",
      "type": "function"
    },
    {
      "inputs": [
        {
          "internalType": "uint256[]",
          "name": "_ids",
          "type": "uint256[]"
        }
      ],
      "name": "enableV1Claim",
      "outputs": [],
      "stateMutability": "nonpayable",
      "type": "function"
    },
    {
      "inputs": [
        {
          "internalType": "uint256",
          "name": "_id",
          "type": "uint256"
        }
      ],
      "name": "isAllowed",
      "outputs": [
        {
          "internalType": "bool",
          "name": "allowed",
          "type": "bool"
        }
      ],
      "stateMutability": "view",
      "type": "function"
    },
    {
      "inputs": [
        {
          "internalType": "uint256",
          "name": "_id",
          "type": "uint256"
        }
      ],
      "name": "isClaimable",
      "outputs": [
        {
          "internalType": "bool",
          "name": "claimable",
          "type": "bool"
        }
      ],
      "stateMutability": "view",
      "type": "function"
    },
    {
      "inputs": [
        {
          "internalType": "uint256[]",
          "name": "_ids",
          "type": "uint256[]"
        }
      ],
      "name": "multiClaim",
      "outputs": [],
      "stateMutability": "nonpayable",
      "type": "function"
    },
    {
      "inputs": [],
      "name": "owner",
      "outputs": [
        {
          "internalType": "address",
          "name": "",
          "type": "address"
        }
      ],
      "stateMutability": "view",
      "type": "function"
    },
    {
      "inputs": [],
      "name": "renounceOwnership",
      "outputs": [],
      "stateMutability": "nonpayable",
      "type": "function"
    },
    {
      "inputs": [
        {
          "internalType": "address",
          "name": "newOwner",
          "type": "address"
        }
      ],
      "name": "transferOwnership",
      "outputs": [],
      "stateMutability": "nonpayable",
      "type": "function"
    },
    {
      "inputs": [],
      "name": "withdrawFloot",
      "outputs": [],
      "stateMutability": "nonpayable",
      "type": "function"
    }
  ],
  "bytecode": "0x61014060405234801561001157600080fd5b506040516111b53803806111b58339818101604052606081101561003457600080fd5b5080516020820151604092830151600080546001600160a01b0319163390811782559451939492939192918291907f8be0079c531659141344cd1fd0a4f28419497f9722a3daafe3b4186f6b6457e0908290a3506001600160601b0319606084811b821660805283811b821660a081905260c05282901b1660e0819052610100526301e1338042016101208190526001600160a01b03938416939283169283921690819061109961011c600039806103f852806109245250806107285250806109b55280610a7f5280610e96525080610b2c525080610d5f52508061056852506110996000f3fe608060405234801561001057600080fd5b50600436106101005760003560e01c8063715018a6116100975780638f252054116100665780638f25205414610375578063a5b20c8d1461037d578063dbe7e3bd14610385578063f2fde38b146103a257610100565b8063715018a614610340578063744113bc1461034857806389610a09146103505780638da5cb5b1461036d57610100565b806350bd48a1116100d357806350bd48a1146102125780635c5f6ede14610282578063643736261461029f578063677a39a51461030f57610100565b80632ff69aa014610105578063379607f51461013657806341319831146101555780634ed73d281461016f575b600080fd5b6101226004803603602081101561011b57600080fd5b50356103d5565b604080519115158252519081900360200190f35b6101536004803603602081101561014c57600080fd5b50356103ea565b005b61015d6103f6565b60408051918252519081900360200190f35b6101536004803603602081101561018557600080fd5b8101906020810181356401000000008111156101a057600080fd5b8201836020820111156101b257600080fd5b803590602001918460208302840111640100000000831117156101d457600080fd5b91908080602002602001604051908101604052809392919081815260200183836020028082843760009201919091525092955061041a945050505050565b6101536004803603602081101561022857600080fd5b81019060208101813564010000000081111561024357600080fd5b82018360208201111561025557600080fd5b8035906020019184602083028401116401000000008311171561027757600080fd5b50909250905061044e565b6101226004803603602081101561029857600080fd5b5035610549565b610153600480360360208110156102b557600080fd5b8101906020810181356401000000008111156102d057600080fd5b8201836020820111156102e257600080fd5b8035906020019184602083028401116401000000008311171561030457600080fd5b509092509050610630565b610317610726565b6040805173ffffffffffffffffffffffffffffffffffffffff9092168252519081900360200190f35b61015361074a565b61015d610844565b6101226004803603602081101561036657600080fd5b5035610852565b61031761087b565b610153610897565b610317610b2a565b6101226004803603602081101561039b57600080fd5b5035610b4e565b610153600480360360208110156103b857600080fd5b503573ffffffffffffffffffffffffffffffffffffffff16610b63565b60026020526000908152604090205460ff1681565b6103f381610ce7565b50565b7f000000000000000000000000000000000000000000000000000000000000000081565b60005b815181101561044a5761044282828151811061043557fe5b6020026020010151610ce7565b60010161041d565b5050565b3361045761087b565b73ffffffffffffffffffffffffffffffffffffffff16146104d957604080517f08c379a000000000000000000000000000000000000000000000000000000000815260206004820181905260248201527f4f776e61626c653a2063616c6c6572206973206e6f7420746865206f776e6572604482015290519081900360640190fd5b60005b81811015610544576001600260008585858181106104f657fe5b6020908102929092013583525081019190915260400160002080547fffffffffffffffffffffffffffffffffffffffffffffffffffffffffffffff00169115159190911790556001016104dc565b505050565b60008115806105595750611f4082115b156105665750600061062b565b7f000000000000000000000000000000000000000000000000000000000000000073ffffffffffffffffffffffffffffffffffffffff16636352211e836040518263ffffffff1660e01b81526004018082815260200191505060206040518083038186803b1580156105d757600080fd5b505afa9250505080156105fc57506040513d60208110156105f757600080fd5b505160015b6106085750600161062b565b5060008281526002602052604090205460ff166106275750600061062b565b5060015b919050565b3361063961087b565b73ffffffffffffffffffffffffffffffffffffffff16146106bb57604080517f08c379a000000000000000000000000000000000000000000000000000000000815260206004820181905260248201527f4f776e61626c653a2063616c6c6572206973206e6f7420746865206f776e6572604482015290519081900360640190fd5b60005b81811015610544576000600260008585858181106106d857fe5b6020908102929092013583525081019190915260400160002080547fffffffffffffffffffffffffffffffffffffffffffffffffffffffffffffff00169115159190911790556001016106be565b7f000000000000000000000000000000000000000000000000000000000000000081565b3361075361087b565b73ffffffffffffffffffffffffffffffffffffffff16146107d557604080517f08c379a000000000000000000000000000000000000000000000000000000000815260206004820181905260248201527f4f776e61626c653a2063616c6c6572206973206e6f7420746865206f776e6572604482015290519081900360640190fd5b6000805460405173ffffffffffffffffffffffffffffffffffffffff909116907f8be0079c531659141344cd1fd0a4f28419497f9722a3daafe3b4186f6b6457e0908390a3600080547fffffffffffffffffffffffff0000000000000000000000000000000000000000169055565b69021e19e0c9bab240000081565b60008181526001602052604081205460ff16158015610875575061087582610549565b92915050565b60005473ffffffffffffffffffffffffffffffffffffffff1690565b336108a061087b565b73ffffffffffffffffffffffffffffffffffffffff161461092257604080517f08c379a000000000000000000000000000000000000000000000000000000000815260206004820181905260248201527f4f776e61626c653a2063616c6c6572206973206e6f7420746865206f776e6572604482015290519081900360640190fd5b7f00000000000000000000000000000000000000000000000000000000000000004210156109b157604080517f08c379a000000000000000000000000000000000000000000000000000000000815260206004820152601960248201527f43616e6e6f7420776974686472617720464c4f4f542079657400000000000000604482015290519081900360640190fd5b60007f000000000000000000000000000000000000000000000000000000000000000073ffffffffffffffffffffffffffffffffffffffff166370a08231306040518263ffffffff1660e01b8152600401808273ffffffffffffffffffffffffffffffffffffffff16815260200191505060206040518083038186803b158015610a3a57600080fd5b505afa158015610a4e573d6000803e3d6000fd5b505050506040513d6020811015610a6457600080fd5b5051905073ffffffffffffffffffffffffffffffffffffffff7f00000000000000000000000000000000000000000000000000000000000000001663a9059cbb610aac61087b565b836040518363ffffffff1660e01b8152600401808373ffffffffffffffffffffffffffffffffffffffff16815260200182815260200192505050602060405180830381600087803b158015610b0057600080fd5b505af1158015610b14573d6000803e3d6000fd5b505050506040513d602081101561054457600080fd5b7f000000000000000000000000000000000000000000000000000000000000000081565b60016020526000908152604090205460ff1681565b33610b6c61087b565b73ffffffffffffffffffffffffffffffffffffffff1614610bee57604080517f08c379a000000000000000000000000000000000000000000000000000000000815260206004820181905260248201527f4f776e61626c653a2063616c6c6572206973206e6f7420746865206f776e6572604482015290519081900360640190fd5b73ffffffffffffffffffffffffffffffffffffffff8116610c5a576040517f08c379a000000000000000000000000000000000000000000000000000000000815260040180806020018281038252602681526020018061103e6026913960400191505060405180910390fd5b6000805460405173ffffffffffffffffffffffffffffffffffffffff808516939216917f8be0079c531659141344cd1fd0a4f28419497f9722a3daafe3b4186f6b6457e091a3600080547fffffffffffffffffffffffff00000000000000000000000000000000000000001673ffffffffffffffffffffffffffffffffffffffff92909216919091179055565b610cf081610852565b610d5b57604080517f08c379a000000000000000000000000000000000000000000000000000000000815260206004820152601b60248201527f46616d696c6961722063616e6e6f7420636c61696d20464c4f4f540000000000604482015290519081900360640190fd5b60007f000000000000000000000000000000000000000000000000000000000000000073ffffffffffffffffffffffffffffffffffffffff16636352211e836040518263ffffffff1660e01b81526004018082815260200191505060206040518083038186803b158015610dce57600080fd5b505afa158015610de2573d6000803e3d6000fd5b505050506040513d6020811015610df857600080fd5b50516040805173ffffffffffffffffffffffffffffffffffffffff808416602483015269021e19e0c9bab240000060448084019190915283518084039091018152606490920183526020820180517bffffffffffffffffffffffffffffffffffffffffffffffffffffffff167fa9059cbb000000000000000000000000000000000000000000000000000000001781529251825194955060009485947f000000000000000000000000000000000000000000000000000000000000000093909316939282918083835b60208310610efe57805182527fffffffffffffffffffffffffffffffffffffffffffffffffffffffffffffffe09092019160209182019101610ec1565b6001836020036101000a0380198251168184511680821785525050505050509050019150506000604051808303816000865af19150503d8060008114610f60576040519150601f19603f3d011682016040523d82523d6000602084013e610f65565b606091505b5091509150818015610f93575080511580610f935750808060200190516020811015610f9057600080fd5b50515b610ffe57604080517f08c379a000000000000000000000000000000000000000000000000000000000815260206004820152601560248201527f466c6f6f74207472616e73666572206661696c65640000000000000000000000604482015290519081900360640190fd5b505050600090815260016020819052604090912080547fffffffffffffffffffffffffffffffffffffffffffffffffffffffffffffff0016909117905556fe4f776e61626c653a206e6577206f776e657220697320746865207a65726f2061646472657373a26469706673582212207ff64d5d713045a7ab33a42de99389db6325970206393b91ceaa1fed6be8fc0464736f6c63430007060033",
  "linkReferences": {},
  "deployedLinkReferences": {}
}